:100000000C946F000C9497000C9497000C9497003C
:100010000C9497000C9497000C9497000C94970004
:100020000C9497000C9497000C9497000C949700F4
:100030000C9497000C9497000C9497000C949700E4
:100040000C9483020C9497000C94F3020C94CD0250
:100050000C9497000C9497000C9497000C949700C4
:100060000C9425030C949700084AD73B3BCE016EB5
:1000700084BCBFFDC12F3D6C74319ABD56833DDAFF
:100080003D00C77F11BED9E4BB4C3E916BAAAABE0E
:10009000000000803F0000000000250028002B0029
:1000A000040404040404040402020202020203031E
:1000B0000303030301020408102040800102040826
:1000C00010200102040810200000000800020100B6
:1000D000000304070000000000000000620D11246E
:1000E0001FBECFEFD8E0DEBFCDBF11E0A0E0B1E092
:1000F000EEEDF1E202C005900D92A63DB107D9F7F1
:1001000023E0A6EDB1E001C01D92A43AB207E1F7E9
:1001100010E0CFE6D0E004C02197FE010E94E2107B
:10012000CE36D107C9F70E94740A0C94ED100C94D6
:100130000000CF92DF92EF92FF920F931F93CF9325
:10014000DF936C017A018B01C0E0D0E0CE15DF05B2
:1001500081F0D8016D918D01D601ED91FC91019056
:10016000F081E02DC6010995892B11F02196EECF83
:100170007E01C701DF91CF911F910F91FF90EF900A
:10018000DF90CF900895FC01538D448D252F30E0F2
:10019000842F90E0821B930B541710F0CF96089594
:1001A00001970895FC01918D828D981761F0828DE1
:1001B000DF01A80FB11D5D968C91928D9F5F9F739B
:1001C000928F90E008958FEF9FEF0895FC01918D3D
:1001D000828D981731F0828DE80FF11D858D90E0AA
:1001E00008958FEF9FEF0895FC01918D228D892F47
:1001F00090E0805C9F4F821B91098F73992708952F
:100200008FE892E00E94F40021E0892B09F420E0BD
:10021000822F0895FC01848DDF01A80FB11DA35A20
:10022000BF4F2C91848D90E001968F739927848F16
:10023000A689B7892C93A089B1898C9180648C930D
:10024000938D848D981306C00288F389E02D8081F8
:100250008F7D80830895EF92FF920F931F93CF932A
:10026000DF93EC0181E0888F9B8D8C8D981305C006
:10027000E889F989808185FD24C0F62E0B8D10E078
:100280000F5F1F4F0F731127E02E8C8DE8120CC0EB
:100290000FB607FCFACFE889F989808185FFF5CF91
:1002A000CE010E940A01F1CF8B8DFE01E80FF11DF6
:1002B000E35AFF4FF0820B8FEA89FB8980818062CD
:1002C00007C0EE89FF896083E889F98980818064AD
:1002D000808381E090E0DF91CF911F910F91FF909B
:1002E000EF900895CF93DF93EC01888D8823C9F0B8
:1002F000EA89FB89808185FD05C0A889B9898C912F
:1003000086FD0FC00FB607FCF5CF808185FFF2CFC9
:10031000A889B9898C9185FFEDCFCE010E940A0191
:10032000E7CFDF91CF91089580E090E0892B29F00D
:100330000E94000181110C940000089585ED8093C6
:10034000BC008091BC0084FDFCCF10928E02089509
:1003500040911602262F30E0240F311D2132310545
:10036000DCF420918E022430C9F4FC0180E090E09E
:10037000861758F4309116022191DC01AA50BE4F25
:10038000A30FB11D2C930196F3CF80911602680F35
:100390006093160280E0089581E0089582E0089558
:1003A0000895E091430280914202E81730F4F0E0B2
:1003B000E85BFD4F808190E008958FEF9FEF0895F7
:1003C0009091430280914202981750F4E92FF0E097
:1003D000E85BFD4F208130E09F5F9093430202C0B5
:1003E0002FEF3FEFC90108958091420290E02091E4
:1003F0004302821B91090895CF92DF92EF92FF9200
:100400000F931F93CF93DF937C01CB018A0120913F
:100410004702222389F0EB016B01C40ED51ECC15D7
:10042000DD0569F06991D701ED91FC910190F081B2
:10043000E02DC7010995F3CF642F0E94A801C801E0
:10044000DF91CF911F910F91FF90EF90DF90CF90B0
:100450000895CF93DF931F92CDB7DEB769832091C4
:1004600047022223D1F020914402203240F021E0C3
:1004700030E0FC013383228380E090E015C080915E
:100480004502E82FF0E0EA52FE4F998190838F5F9A
:10049000809345028093440205C061E0CE0101963D
:1004A0000E94A80181E090E00F90DF91CF91089524
:1004B000089580E090E008950E94E8103FB7F89416
:1004C00080913A0290913B02A0913C02B0913D0292
:1004D00026B5A89B05C02F3F19F00196A11DB11D9F
:1004E0003FBFBA2FA92F982F8827820F911DA11DDA
:1004F000B11DBC01CD0142E0660F771F881F991F17
:100500004A95D1F708951F920F920FB60F921124BA
:100510002F933F938F939F93AF93BF9380913E020E
:1005200090913F02A0914002B09141023091390276
:1005300023E0230F2D3720F40196A11DB11D05C026
:1005400026E8230F0296A11DB11D20933902809346
:100550003E0290933F02A0934002B09341028091EB
:100560003A0290913B02A0913C02B0913D0201966B
:10057000A11DB11D80933A0290933B02A0933C02CF
:10058000B0933D02BF91AF919F918F913F912F9179
:100590000F900FBE0F901F9018951F920F920FB6DD
:1005A0000F9211242F933F934F935F936F937F93F9
:1005B0008F939F93AF93BF93EF93FF938FE892E056
:1005C0000E940A01FF91EF91BF91AF919F918F918E
:1005D0007F916F915F914F913F912F910F900FBE3F
:1005E0000F901F9018951F920F920FB60F92112423
:1005F0002F938F939F93EF93FF93E0919F02F0913E
:10060000A0028081E091A502F091A60282FD12C0B5
:1006100090818091A8028F5F8F732091A902821729
:1006200051F0E091A802F0E0E157FD4F958F8093E3
:10063000A80201C08081FF91EF919F918F912F912E
:100640000F900FBE0F901F9018951F920F920FB62C
:100650000F9211242F933F934F935F936F937F9348
:100660008F939F93AF93BF93EF93FF938091B900C4
:10067000887F803609F49CC068F5883209F45BC035
:1006800090F4803109F454C038F4882309F4F2C09E
:10069000883009F44DC0F2C0883109F44CC0803272
:1006A00009F45DC0EBC0803409F468C048F48033BD
:1006B00009F455C0883309F0E1C080938C02D4C09E
:1006C000803509F44FC0883509F45DC0883409F0DD
:1006D000D5C0D2C0883909F4C3C0A8F4883709F45A
:1006E00067C038F4883609F463C0803709F460C005
:1006F000C5C0883809F4B4C0803909F45FC08038B7
:1007000009F0BCC05BC0803B09F484C038F4803A77
:1007100009F466C0883A09F47DC0B0C0803C09F491
:10072000A3C0883C09F4A0C0883B09F486C0A6C0D9
:100730008091890210C090918B0280918A02981753
:1007400070F5E0918B0281E08E0F80938B02F0E0D8
:10075000E859FD4F80818093BB0085EC82C0809377
:100760008C028AC0E0918B0281E08E0F80938B0215
:100770008091BB00F0E0E859FD4F808390918B029F
:1007800080918A026AC0E0918B0281E08E0F809393
:100790008B028091BB00F0E0E859FD4F808380918F
:1007A0008D02811169C081E08093880284EA5DC076
:1007B00083E080938E0210923802CFCF809138026E
:1007C000803208F04DC0E091380281E08E0F8093B6
:1007D00038028091BB00F0E0E85EFD4F8083BDCF22
:1007E00085EC8093BC0010928E028091380280329A
:1007F00030F4E0913802F0E0E85EFD4F1082609145
:10080000380270E088E192E0E0E0F0E009951092B3
:10081000380234C084E080938E0210921702109246
:100820001602E0E0F0E0099580911602811105C002
:1008300081E0809316021092F601E091170281E0A8
:100840008E0F80931702F0E0EA50FE4F8081809374
:10085000BB009091170280911602981708F47DCF83
:1008600085E88093BC000AC085EC8093BC001092A0
:100870008E0204C010928C020E949E01FF91EF91A3
:10088000BF91AF919F918F917F916F915F914F91A8
:100890003F912F910F900FBE0F901F9018953091A0
:1008A0004402313208F04AC080918E028111FCCF9F
:1008B0009091460222E020938E0260938D022FEFEA
:1008C00020938C0210928B0230938A02E6EDF1E0C5
:1008D000A8E6B2E020E0321721F041914D932F5F5E
:1008E000FACF1092890220918902990F922B90934E
:1008F000890290918802913061F41092880290915F
:1009000089029093BB009091BC0093FDF8CF95ECC9
:1009100001C095EE9093BC0090918E029230E1F36D
:1009200090918C029F3F79F080918C02803241F04F
:1009300080918C02803331F084E005C081E003C0F7
:1009400082E001C083E010924502109244021092AE
:1009500047020895009769F0FC0101900020E9F733
:100960003197AF01481B590BBC018FE892E00C9402
:10097000990080E090E008950C94AA04CF93DF934F
:100980000E94AA04EC0184E291E00E94AA048C0F68
:100990009D1FDF91CF9108952F923F924F925F92CA
:1009A0006F927F928F929F92AF92BF92CF92DF927F
:1009B000EF92FF920F931F93CF93DF93CDB7DEB7E4
:1009C000A4970FB6F894DEBF0FBECDBF4B015C01FC
:1009D000F42E9B01AC010E949310882319F08AEC3D
:1009E00091E027C024013501E89477F82FEF3FEF1D
:1009F0004FE75FE7C301B2010E94931081110DC060
:100A00002FEF3FEF4FE75FE7C301B2010E94960E61
:100A100018161CF48EEC91E00CC02FEF3FEF4FE75F
:100A20005FE4C501B4010E94151018162CF482ED84
:100A300091E00E94AA04B8C02FEF3FEF4FE75FECB0
:100A4000C501B4010E94960E87FDF1CF20E030E091
:100A5000A901C501B4010E94960E87FF0BC06DE28B
:100A60008FE892E00E942B013C01B7FAB094B7F8EE
:100A7000B09402C0612C712C10E060E070E080E066
:100A80009FE3F11641F020E030E040E251E40E94A3
:100A90009B0E1F5FF6CFA50194010E94B80D4B017C
:100AA0005C010E940D0F6AA3C72ED82EE92E19A251
:100AB000262F372F482F592F8E010F5D1F4F0BA365
:100AC0001CA39AE0292E312C412C512CCA01B901CA
:100AD000A20191010E94AC10605DF80162938F0148
:100AE000211531054105510589F7CF010E94AA045E
:100AF0008301080F191FFF2009F455C06AA17C2D3E
:100B00008D2D9E2D0E943C0F9B01AC01C501B401AF
:100B10000E94B70D4B015C016EE28FE892E00E94EB
:100B20002B01080F191F8AE0282E312C412C512C43
:100B300020E030E040E251E4C501B4010E942210FF
:100B40004B015C010E940D0F9B0140E050E019A297
:100B5000CBA0DCA0762E3AA3642EE52ECA01B90103
:100B6000A20191010E94AC10605DF60162936F01D9
:100B7000211531054105510589F7CF010E94AA04CD
:100B8000080F191F672D7AA1862D9E2D0E943C0FFC
:100B90009B01AC01C501B4010E94B70D4B015C0182
:100BA000FA94F110C5CFC801A4960FB6F894DEBF31
:100BB0000FBECDBFDF91CF911F910F91FF90EF90AE
:100BC000DF90CF90BF90AF909F908F907F906F906D
:100BD0005F904F903F902F900895CF93DF9342E026
:100BE0000E94CC04EC0184E291E00E94AA048C0FE4
:100BF0009D1FDF91CF91089590918E029111FCCFAE
:100C000091E090938E0240938D022FEF20938C02FF
:100C100010928B02260F20938A0290938902909162
:100C20008902880F892B8093890280918802813004
:100C300061F410928802809189028093BB008091B8
:100C4000BC0083FDF8CF85EC01C085EE8093BC002D
:100C500080918E028130E1F380918B02861710F42F
:100C600060918B02A8E6B2E0E8E4F2E080E086174B
:100C700021F09D9191938F5FFACF08952F923F922B
:100C80004F925F926F927F928F929F92AF92BF929C
:100C9000CF92DF92EF92FF92CF93DF93CDB7DEB783
:100CA00028970FB6F894DEBF0FBECDBF81E08093CA
:100CB000470288E680934602109245021092440251
:100CC0008091380390913903DC01ED91FC91019002
:100CD000F081E02D6BE3099560E0809138039091FD
:100CE00039030E944F0441E06EE088E60E94FC0553
:100CF000109243028093420280913803909139030D
:100D0000DC01ED91FC910284F385E02D0995F82E2C
:100D10008091380390913903DC01ED91FC910284BC
:100D2000F385E02D099520E030E03F2D822B932BB9
:100D300090933B0380933A03809138039091390359
:100D4000DC01ED91FC910284F385E02D0995F82EEC
:100D50008091380390913903DC01ED91FC9102847C
:100D6000F385E02D099520E030E03F2D822B932B79
:100D700090933D0380933C03809138039091390315
:100D8000DC01ED91FC910284F385E02D0995F82EAC
:100D90008091380390913903DC01ED91FC9102843C
:100DA000F385E02D099520E030E03F2D822B932B39
:100DB00090933F0380933E038091380390913903D1
:100DC000DC01ED91FC910284F385E02D0995F82E6C
:100DD0008091380390913903DC01ED91FC910284FC
:100DE000F385E02D099520E030E03F2D822B932BF9
:100DF000909341038093400380913803909139038D
:100E0000DC01ED91FC910284F385E02D0995F82E2B
:100E10008091380390913903DC01ED91FC910284BB
:100E2000F385E02D099520E030E03F2D822B932BB8
:100E30009093430380934203809138039091390348
:100E4000DC01ED91FC910284F385E02D0995F82EEB
:100E50008091380390913903DC01ED91FC9102847B
:100E6000F385E02D099520E030E03F2D822B932B78
:100E70009093450380934403809138039091390304
:100E8000DC01ED91FC910284F385E02D0995F82EAB
:100E90008091380390913903DC01ED91FC9102843B
:100EA000F385E02D099560E070E07F2D3B01682A15
:100EB000792A7092470360924603609140037091D3
:100EC0004103072E000C880B990B0E943E0F20E077
:100ED00030EF41E456E40E94B80D20E030E04AEAE9
:100EE00053E40E949B0E60935403709355038093C8
:100EF00056039093570360913A0370913B03072E7A
:100F0000000C880B990B0E943E0F20E030E040E877
:100F100058E30E9422104B015C01609358037093C8
:100F2000590380935A0390935B0360913C03709143
:100F30003D03072E000C880B990B0E943E0F20E00A
:100F400030E040E858E30E9422106B017C0160937E
:100F50005C0370935D0380935E0390935F036091E5
:100F60003E0370913F03072E000C880B990B0E94E3
:100F70003E0F20E030E040E858E30E9422101B01C1
:100F80002C016093600370936103809362039093DC
:100F9000630320E030E0A901C501B4010E941510EF
:100FA000A501940118160CF05058C201B1010E941D
:100FB000B80D9B01AC01C701B6010E94370E20E0BD
:100FC00030E044EB53E40E94221020E030E040E0A7
:100FD0005FE30E9422102BED3FE049E450E40E94C1
:100FE0009B0E60937C0370937D0380937E039093AC
:100FF0007F0320E030E0A901C701B6010E9415106F
:10100000181624F0F7FAF094F7F8F094A701960177
:10101000C201B1010E94B80D9B01AC01C501B40130
:101020000E94370E20E030E044EB53E40E9422108F
:1010300020E030E040E05FEB0E9422102BED3FE02B
:1010400049E450E40E949B0E6093800370938103F7
:1010500080938203909383036091440370914503CE
:10106000072E000C880B990B0E943E0F20E030E009
:1010700043E852E40E949B0E6B017C0160914203A5
:1010800070914303072E000C880B990B0E943E0FB2
:1010900020E030E043E852E40E949B0E2091480398
:1010A0003091490340914A0350914B030E94B70D80
:1010B0006093640370936503809366039093670362
:1010C00020914C0330914D0340914E0350914F03BA
:1010D000C701B6010E94B70D60936803709369035E
:1010E00080936A0390936B03B301770C880B990B81
:1010F0000E943E0F20E030E043E852E40E949B0E45
:101100002091500330915103409152035091530369
:101110000E94B70D60936C0370936D0380936E0310
:1011200090936F032FB7F89480913E0290913F0205
:10113000A0914002B09141022FBFC0909803D0907F
:101140009903E0909A03F0909B03BC01CD016C19C8
:101150007D098E099F090E943C0F2FE632E143E88A
:101160005AE30E9422106B017C01609394037093F8
:101170009503809396039093970320916403309195
:10118000650340916603509167030E9422102B0172
:101190003C019B01AC0160917003709171038091DF
:1011A0007203909173030E94B80D60937003709363
:1011B00071038093720390937303209168033091BD
:1011C000690340916A0350916B03C701B6010E9405
:1011D00022104B015C019B01AC0160917403709182
:1011E000750380917603909177030E94B80D609308
:1011F0007403709375038093760390937703209123
:101200006C0330916D0340916E0350916F03C701E1
:10121000B6010E9422102091780330917903409109
:101220007A0350917B030E94B80D6D837E838F8378
:101230009887609378037093790380937A039093EF
:101240007B03C090A003D090A103E090A203F09094
:10125000A30380919C0390919D03A0919E03B09164
:101260009F0389839A83AB83BC8320918803309149
:10127000890340918A0350918B03C301B2010E94FC
:10128000B80DA70196010E9422102B013C0120916C
:101290007C0330917D0340917E0350917F036981EF
:1012A0007A818B819C810E9422109B01AC01C30139
:1012B000B2010E94B80D60938803709389038093F4
:1012C0008A0390938B0320918C0330918D0340917E
:1012D0008E0350918F03C501B4010E94B80DA70180
:1012E00096010E9422106B017C01209180033091B5
:1012F0008103409182035091830369817A818B81BC
:101300009C810E9422109B01AC01C701B6010E9482
:10131000B80D60938C0370938D0380938E0390932C
:101320008F038D819E81AF81B885809390039093C8
:101330009103A0939203B09393032FB7F8948091F5
:101340003E0290913F02A0914002B09141022FBF16
:101350008093980390939903A0939A03B0939B036F
:1013600028960FB6F894DEBF0FBECDBFDF91CF91A8
:10137000FF90EF90DF90CF90BF90AF909F908F90B5
:101380007F906F905F904F903F902F9008951F93A4
:10139000CF93DF93162F91E09093470298E69093B6
:1013A00046021092450210924402C8E3D3E0A8819D
:1013B000B981ED91FC9111970190F081E02D682F9A
:1013C000CD01099588819981DC01ED91FC91019015
:1013D000F081E02D612F099561E088819981DF918D
:1013E000CF911F910C944F0490E0FC01E853FF4F04
:1013F0002491FC01EC54FF4F3491FC01E056FF4F67
:10140000E491EE23B1F1222339F1233091F038F445
:101410002130A9F0223001F584B58F7D12C027302C
:1014200091F02830A1F02430B9F4809180008F7DB4
:1014300003C0809180008F77809380000DC084B5B9
:101440008F7784BD09C08091B0008F7703C08091F1
:10145000B0008F7D8093B000F0E0EE0FFF1FEA56E2
:10146000FF4FA591B4918FB7F894EC91E32BEC93D7
:101470008FBF08958F929F92AF92BF92CF92DF92CB
:10148000EF92FF926B017C010E945E024B015C01B6
:10149000C114D104E104F104F1F00E945E02DC0108
:1014A000CB0188199909AA09BB09883E9340A10577
:1014B000B10570F321E0C21AD108E108F10888EE05
:1014C000880E83E0981EA11CB11CC114D104E10454
:1014D000F10419F7DDCFFF90EF90DF90CF90BF9030
:1014E000AF909F908F900895CF93DF93CDB7DEB7E5
:1014F0002B970FB6F894DEBF0FBECDBF789484B59E
:10150000826084BD84B5816084BD85B5826085BDFF
:1015100085B5816085BD80916E00816080936E008D
:10152000109281008091810082608093810080917F
:101530008100816080938100809180008160809330
:1015400080008091B10084608093B1008091B000F0
:1015500081608093B00080917A00846080937A00EB
:1015600080917A00826080937A0080917A00816015
:1015700080937A0080917A00806880937A0010923C
:10158000C100E0919F02F091A00282E08083E0918F
:101590009B02F0919C021082E0919D02F0919E02CC
:1015A0008FEC80831092A702E091A302F091A40235
:1015B00086E08083E091A102F091A20280818061A7
:1015C0008083E091A102F091A202808188608083F3
:1015D000E091A102F091A202808180688083E09175
:1015E000A102F091A20280818F7D8083109243023C
:1015F00010924202109245021092440210928E0202
:1016000081E080938D021092880282E10E94F409A9
:1016100083E10E94F4098091B9008E7F8093B90024
:101620008091B9008D7F8093B90088E48093B800E1
:1016300085E48093BC0060E089E10E94C70960E016
:101640008AE10E94C70968E08BE10E94C70960E057
:101650008CE10E94C70961E08BE60E94C7090E94E5
:101660003E06109270031092710310927203109252
:101670007303109274031092750310927603109204
:10168000770380917C0390917D03A0917E03B091BC
:101690007F038093880390938903A0938A03B09378
:1016A0008B038091800390918103A0918203B0917C
:1016B000830380938C0390938D03A0938E03B09348
:1016C0008F032FB7F89480913E0290913F02A09132
:1016D0004002B09141022FBF8093980390939903E9
:1016E000A0939A03B0939B0368EE73E080E090E0D0
:1016F0000E943A0A84E291E00E94AA0487E291E003
:101700000E94BE0480E591E00E94BE0487E691E05D
:101710000E94BC04C12CD12C760146015701260140
:10172000370100E010E0C80168EE73E00E949810F5
:10173000892B21F48DE791E00E94BC0421E02093E5
:10174000470238E630934602109245021092440256
:101750008091380390913903DC01ED91FC91019067
:10176000F081E02D6BE3099560E080913803909162
:1017700039030E944F0441E06EE088E60E94FC05B8
:101780001092430280934202809138039091390372
:10179000DC01ED91FC910284F385E02D09958091A7
:1017A000380390913903DC01ED91FC910284F385BB
:1017B000E02D09958091380390913903DC01ED917A
:1017C000FC910284F385E02D099580913803909176
:1017D0003903DC01ED91FC910284F385E02D09953C
:1017E0008091380390913903DC01ED91FC910284E2
:1017F000F385E02D09958091380390913903DC0140
:10180000ED91FC910284F385E02D099580913803D8
:1018100090913903DC01ED91FC910284F385E02D78
:1018200009958091380390913903DC01ED91FC9189
:101830000284F385E02D0995809138039091390356
:10184000DC01ED91FC910284F385E02D09958F83F5
:101850008091380390913903DC01ED91FC91028471
:10186000F385E02D0995BF81BA83198229813A81D8
:10187000282B392B3B872A87809138039091390395
:10188000DC01ED91FC910284F385E02D0995382E61
:101890008091380390913903DC01ED91FC91028431
:1018A000F385E02D09953C821B822B813C81282BFE
:1018B000392B38872F838091380390913903DC01CD
:1018C000ED91FC910284F385E02D09958987809143
:1018D000380390913903DC01ED91FC910284F3858A
:1018E000E02D09951C012A853B85B901330F880B32
:1018F000990B0E943E0F20E030E043E852E40E9442
:101900009B0E9B01AC01C301B2010E94B80D2B01DB
:101910003C01AF81B885BD01BB0F880B990B0E94BC
:101920003E0F20E030E043E852E40E949B0E9B0112
:10193000AC01C501B4010E94B80D4B015C01B98531
:10194000BE831D826D817E8162297329072E000C62
:10195000880B990B0E943E0F20E030E043E852E4F0
:101960000E949B0E9B01AC01C701B6010E94B80DFD
:101970006B017C010F5F1F4F083B2BE0120709F042
:10198000D2CE20E030E84BE355E4C301B2010E941F
:101990009B0E609348037093490380934A0390938E
:1019A0004B0320E030E84BE355E4C501B4010E944D
:1019B0009B0E60934C0370934D0380934E03909362
:1019C0004F0320E030E84BE355E4C701B6010E9425
:1019D0009B0E609350037093510380935203909336
:1019E000530384E291E00E94AA048FE791E00E94F1
:1019F000BE048FEA91E00E94BC046091480370919C
:101A0000490380914A0390914B030E94ED058AEBB4
:101A100091E00E94BC0460914C0370914D03809151
:101A20004E0390914F030E94ED0585EC91E00E94DA
:101A3000BC046091500370915103809152039091C6
:101A400053030E94ED0587E891E00E94BE0487E2FF
:101A500091E00E94BC0468EB7BE080E090E00E9493
:101A60003A0A0E943E068AEA91E00E94BC04609114
:101A700088037091890380918A0390918B0342E0DF
:101A80000E94CC0484EB91E00E94BC0460918C0322
:101A900070918D0380918E0390918F0342E00E949C
:101AA000CC048FEB91E00E94BC0460919003709194
:101AB000910380919203909193030E94ED050E94FF
:101AC0009401CFCFEFE8F2E01382128288EE93E028
:101AD000A0E0B0E084839583A683B78324E031E05F
:101AE0003183208325EC30E03587248724EC30E0F7
:101AF0003787268720EC30E0318B208B21EC30E0DB
:101B0000338B228B22EC30E0358B248B26EC30E0BB
:101B1000378B268B118E128E138E148EECE2F3E02F
:101B20001382128284839583A683B78386E191E032
:101B300091838083F0933903E09338038AE097ED33
:101B4000A3EABCE380939C0390939D03A0939E0320
:101B5000B0939F0388E491EEAAE7BFE38093A003CC
:101B60009093A103A093A203B093A30308955058A8
:101B7000BB27AA270E94CF0D0C94DB0F0E94CD0F2C
:101B800038F00E94D40F20F039F49F3F19F426F466
:101B90000C94A30F0EF4E095E7FB0C949D0FE92F36
:101BA0000E94EC0F58F3BA17620773078407950772
:101BB00020F079F4A6F50C940E100EF4E0950B2E9F
:101BC000BA2FA02D0B01B90190010C01CA01A0018F
:101BD0001124FF27591B99F0593F50F4503E68F1EA
:101BE0001A16F040A22F232F342F4427585FF3CF2B
:101BF000469537952795A795F0405395C9F77EF4FC
:101C00001F16BA0B620B730B840BBAF09150A1F044
:101C1000FF0FBB1F661F771F881FC2F70EC0BA0FCA
:101C2000621F731F841F48F4879577956795B79552
:101C3000F7959E3F08F0B0CF9395880F08F099274D
:101C4000EE0F9795879508950E94CD0F60F080E87C
:101C500091E009F49EEF0E94D40F28F040E851E093
:101C600071F45EEF0CC00C94A30F0C940E10E92FCE
:101C7000E0780E94EC0F40F3092E052AB1F32617F5
:101C800037074807590738F00E2E07F8E02569F0A6
:101C9000E025E0640AC0EF6307F8009407FADB016F
:101CA000B9019D01DC01CA01AD01EF930E94B20EA2
:101CB0000E94DB0F0E94670E5F91552339F02BEDD8
:101CC0003FE049E450FD49EC0C94B80D0895DF93D2
:101CD000DD27B92FBF7740E85FE3161617064807E0
:101CE0005B0718F4D92F0E941A109F938F937F934C
:101CF0006F930E948F10E8E6F0E00E94A60F0E940A
:101D0000DB0F2F913F914F915F910E943510DD23A2
:101D100051F09058A2EA2AED3FE049EC5FE3D07819
:101D20005D270E94CF0DDF910C94DB0F0E94790F8D
:101D300008F481E008950E94AF0E0C94DB0F0E941E
:101D4000D40F58F00E94CD0F40F029F45F3F29F0E6
:101D50000C949D0F51110C940F100C94A30F0E9422
:101D6000EC0F68F39923B1F3552391F3951B550BB1
:101D7000BB27AA2762177307840738F09F5F5F4F5E
:101D8000220F331F441FAA1FA9F335D00E2E3AF09D
:101D9000E0E832D091505040E695001CCAF72BD0B5
:101DA000FE2F29D0660F771F881FBB1F2617370706
:101DB0004807AB07B0E809F0BB0B802DBF01FF2738
:101DC00093585F4F3AF09E3F510578F00C949D0F69
:101DD0000C940F105F3FE4F3983ED4F3869577950B
:101DE0006795B795F7959F5FC9F7880F911D9695F1
:101DF000879597F90895E1E0660F771F881FBB1F4D
:101E0000621773078407BA0720F0621B730B840BF9
:101E1000BA0BEE1F88F7E09508950E94F40F88F042
:101E20009F5798F0B92F9927B751B0F0E1F0660F9E
:101E3000771F881F991F1AF0BA95C9F714C0B130DF
:101E400091F00E940E10B1E008950C940E10672FCF
:101E5000782F8827B85F39F0B93FCCF3869577950E
:101E60006795B395D9F73EF49095809570956195F7
:101E70007F4F8F4F9F4F0895E89409C097FB3EF422
:101E800090958095709561957F4F8F4F9F4F9923C7
:101E9000A9F0F92F96E9BB279395F6958795779545
:101EA0006795B795F111F8CFFAF4BB0F11F460FF05
:101EB0001BC06F5F7F4F8F4F9F4F16C0882311F05D
:101EC00096E911C0772321F09EE8872F762F05C071
:101ED000662371F096E8862F70E060E02AF09A950C
:101EE000660F771F881FDAF7880F9695879597F901
:101EF0000895990F0008550FAA0BE0E8FEEF16169B
:101F00001706E807F907C0F012161306E407F507ED
:101F100098F0621B730B840B950B39F40A2661F061
:101F2000232B242B252B21F408950A2609F4A14004
:101F3000A6958FEF811D811D089597F99F6780E811
:101F400070E060E008959FEF80EC0895DF93CF93F9
:101F50001F930F93FF92EF92DF927B018C016894A5
:101F600006C0DA2EEF010E943510FE01E894A5911B
:101F70002591359145915591A6F3EF010E94CF0D22
:101F8000FE019701A801DA9469F7DF90EF90FF90C6
:101F90000F911F91CF91DF91089500240A94161696
:101FA000170618060906089500240A941216130647
:101FB000140605060895092E0394000C11F48823D5
:101FC00052F0BB0F40F4BF2B11F460FF04C06F5FF1
:101FD0007F4F8F4F9F4F089557FD9058440F551FC7
:101FE00059F05F3F71F04795880F97FB991F61F09B
:101FF0009F3F79F087950895121613061406551F12
:10200000F2CF4695F1DF08C0161617061806991F7D
:10201000F1CF86957105610508940895E894BB2772
:1020200066277727CB0197F908950E94790F08F466
:102030008FEF08959B01AC0160E070E080E89FE3C2
:102040000C949B0E0E9435100C94DB0F0E94CD0F58
:1020500038F00E94D40F20F0952311F00C949D0FBE
:102060000C94A30F11240C940F100E94EC0F70F32A
:10207000959FC1F3950F50E0551F629FF001729F2D
:10208000BB27F00DB11D639FAA27F00DB11DAA1F3C
:10209000649F6627B00DA11D661F829F2227B00D89
:1020A000A11D621F739FB00DA11D621F839FA00D14
:1020B000611D221F749F3327A00D611D231F849F64
:1020C000600D211D822F762F6A2F11249F575040BB
:1020D0009AF0F1F088234AF0EE0FFF1FBB1F661F36
:1020E000771F881F91505040A9F79E3F510580F0FF
:1020F0000C949D0F0C940F105F3FE4F3983ED4F3C3
:10210000869577956795B795F795E7959F5FC1F7A2
:10211000FE2B880F911D9695879597F908959B0141
:10212000AC010C9422100E94790F880B990B089532
:1021300097FB072E16F4009407D077FD09D00E9474
:10214000CE1007FC05D03EF4909581959F4F0895E1
:10215000709561957F4F0895A1E21A2EAA1BBB1BB3
:10216000FD010DC0AA1FBB1FEE1FFF1FA217B30763
:10217000E407F50720F0A21BB30BE40BF50B661F79
:10218000771F881F991F1A9469F76095709580953D
:1021900090959B01AC01BD01CF010895AA1BBB1B0B
:1021A00051E107C0AA1FBB1FA617B70710F0A61B57
:1021B000B70B881F991F5A95A9F780959095BC0178
:1021C000CD010895EE0FFF1F0590F491E02D0994C5
:0E21D00081E090E0F8940C94ED10F894FFCFAD
:1021DE00000000002B019900C3007201F400D20030
:1021EE00E600000000002902FC015902D001F401B2
:1021FE00E001D1010D0A003D3D3D3D3D3D3D3D3DE2
:10220E003D3D3D3D3D3D3D3D3D3D3D3D3D3D3D3DF0
:10221E003D3D3D3D3D3D3D3D3D3D3D3D3D3D3D001D
:10222E0063616C63756C617465206779726F206F82
:10223E0066667365747300444F204E4F54204D4FA5
:10224E0056452041204D505536303530002E004435
:10225E006F6E652121210050726F6772616D20775C
:10226E00696C6C207374617274206166746572207F
:10227E0033207365636F6E647300616E676C6558AF
:10228E00203A200009616E676C6559203A200009DA
:10229E00616E676C655A203A20006E616E00696E41
:0622AE0066006F76660079
:107E0000112484B714BE81FFF0D085E080938100F7
:107E100082E08093C00088E18093C10086E0809377
:107E2000C20080E18093C4008EE0C9D0259A86E02C
:107E300020E33CEF91E0309385002093840096BBD3
:107E4000B09BFECF1D9AA8958150A9F7CC24DD24C4
:107E500088248394B5E0AB2EA1E19A2EF3E0BF2EE7
:107E6000A2D0813461F49FD0082FAFD0023811F036
:107E7000013811F484E001C083E08DD089C08234E0
:107E800011F484E103C0853419F485E0A6D080C0E4
:107E9000853579F488D0E82EFF2485D0082F10E0AE
:107EA000102F00270E291F29000F111F8ED06801E7
:107EB0006FC0863521F484E090D080E0DECF843638
:107EC00009F040C070D06FD0082F6DD080E0C81688
:107ED00080E7D80618F4F601B7BEE895C0E0D1E017
:107EE00062D089930C17E1F7F0E0CF16F0E7DF06D8
:107EF00018F0F601B7BEE89568D007B600FCFDCFD4
:107F0000A601A0E0B1E02C9130E011968C91119780
:107F100090E0982F8827822B932B1296FA010C0160
:107F200087BEE89511244E5F5F4FF1E0A038BF0790
:107F300051F7F601A7BEE89507B600FCFDCF97BE46
:107F4000E89526C08437B1F42ED02DD0F82E2BD052
:107F50003CD0F601EF2C8F010F5F1F4F84911BD097
:107F6000EA94F801C1F70894C11CD11CFA94CF0C13
:107F7000D11C0EC0853739F428D08EE10CD085E9AC
:107F80000AD08FE07ACF813511F488E018D01DD067
:107F900080E101D065CF982F8091C00085FFFCCF94
:107FA0009093C60008958091C00087FFFCCF809118
:107FB000C00084FD01C0A8958091C6000895E0E648
:107FC000F0E098E1908380830895EDDF803219F02E
:107FD00088E0F5DFFFCF84E1DECF1F93182FE3DFCA
:107FE0001150E9F7F2DF1F91089580E0E8DFEE27F6
:047FF000FF270994CA
:027FFE00040479
:0400000300007E007B
:00000001FF
